{
  "contractName": "Temperature",
  "abi": [
    {
      "inputs": [],
      "stateMutability": "nonpayable",
      "type": "constructor"
    },
    {
      "anonymous": false,
      "inputs": [
        {
          "indexed": true,
          "internalType": "bytes32",
          "name": "role",
          "type": "bytes32"
        },
        {
          "indexed": true,
          "internalType": "bytes32",
          "name": "previousAdminRole",
          "type": "bytes32"
        },
        {
          "indexed": true,
          "internalType": "bytes32",
          "name": "newAdminRole",
          "type": "bytes32"
        }
      ],
      "name": "RoleAdminChanged",
      "type": "event"
    },
    {
      "anonymous": false,
      "inputs": [
        {
          "indexed": true,
          "internalType": "bytes32",
          "name": "role",
          "type": "bytes32"
        },
        {
          "indexed": true,
          "internalType": "address",
          "name": "account",
          "type": "address"
        },
        {
          "indexed": true,
          "internalType": "address",
          "name": "sender",
          "type": "address"
        }
      ],
      "name": "RoleGranted",
      "type": "event"
    },
    {
      "anonymous": false,
      "inputs": [
        {
          "indexed": true,
          "internalType": "bytes32",
          "name": "role",
          "type": "bytes32"
        },
        {
          "indexed": true,
          "internalType": "address",
          "name": "account",
          "type": "address"
        },
        {
          "indexed": true,
          "internalType": "address",
          "name": "sender",
          "type": "address"
        }
      ],
      "name": "RoleRevoked",
      "type": "event"
    },
    {
      "inputs": [],
      "name": "DEFAULT_ADMIN_ROLE",
      "outputs": [
        {
          "internalType": "bytes32",
          "name": "",
          "type": "bytes32"
        }
      ],
      "stateMutability": "view",
      "type": "function",
      "constant": true
    },
    {
      "inputs": [
        {
          "internalType": "uint256",
          "name": "",
          "type": "uint256"
        }
      ],
      "name": "cities",
      "outputs": [
        {
          "internalType": "string",
          "name": "cityName",
          "type": "string"
        },
        {
          "internalType": "uint256",
          "name": "tempTime",
          "type": "uint256"
        },
        {
          "internalType": "uint256",
          "name": "cityId",
          "type": "uint256"
        },
        {
          "internalType": "int256",
          "name": "cityTemp",
          "type": "int256"
        },
        {
          "internalType": "string",
          "name": "cityImg",
          "type": "string"
        }
      ],
      "stateMutability": "view",
      "type": "function",
      "constant": true
    },
    {
      "inputs": [
        {
          "internalType": "bytes32",
          "name": "role",
          "type": "bytes32"
        }
      ],
      "name": "getRoleAdmin",
      "outputs": [
        {
          "internalType": "bytes32",
          "name": "",
          "type": "bytes32"
        }
      ],
      "stateMutability": "view",
      "type": "function",
      "constant": true
    },
    {
      "inputs": [
        {
          "internalType": "bytes32",
          "name": "role",
          "type": "bytes32"
        },
        {
          "internalType": "address",
          "name": "account",
          "type": "address"
        }
      ],
      "name": "grantRole",
      "outputs": [],
      "stateMutability": "nonpayable",
      "type": "function"
    },
    {
      "inputs": [
        {
          "internalType": "bytes32",
          "name": "role",
          "type": "bytes32"
        },
        {
          "internalType": "address",
          "name": "account",
          "type": "address"
        }
      ],
      "name": "hasRole",
      "outputs": [
        {
          "internalType": "bool",
          "name": "",
          "type": "bool"
        }
      ],
      "stateMutability": "view",
      "type": "function",
      "constant": true
    },
    {
      "inputs": [],
      "name": "numberOfCities",
      "outputs": [
        {
          "internalType": "uint256",
          "name": "",
          "type": "uint256"
        }
      ],
      "stateMutability": "view",
      "type": "function",
      "constant": true
    },
    {
      "inputs": [
        {
          "internalType": "bytes32",
          "name": "role",
          "type": "bytes32"
        },
        {
          "internalType": "address",
          "name": "account",
          "type": "address"
        }
      ],
      "name": "renounceRole",
      "outputs": [],
      "stateMutability": "nonpayable",
      "type": "function"
    },
    {
      "inputs": [
        {
          "internalType": "bytes32",
          "name": "role",
          "type": "bytes32"
        },
        {
          "internalType": "address",
          "name": "account",
          "type": "address"
        }
      ],
      "name": "revokeRole",
      "outputs": [],
      "stateMutability": "nonpayable",
      "type": "function"
    },
    {
      "inputs": [
        {
          "internalType": "bytes4",
          "name": "interfaceId",
          "type": "bytes4"
        }
      ],
      "name": "supportsInterface",
      "outputs": [
        {
          "internalType": "bool",
          "name": "",
          "type": "bool"
        }
      ],
      "stateMutability": "view",
      "type": "function",
      "constant": true
    },
    {
      "inputs": [
        {
          "internalType": "string",
          "name": "_name",
          "type": "string"
        },
        {
          "internalType": "uint256",
          "name": "_tempTime",
          "type": "uint256"
        },
        {
          "internalType": "int256",
          "name": "_cityTemp",
          "type": "int256"
        },
        {
          "internalType": "string",
          "name": "_cityImg",
          "type": "string"
        }
      ],
      "name": "addCity",
      "outputs": [],
      "stateMutability": "nonpayable",
      "type": "function"
    },
    {
      "inputs": [
        {
          "internalType": "uint256",
          "name": "_cityId",
          "type": "uint256"
        }
      ],
      "name": "deleteCity",
      "outputs": [],
      "stateMutability": "nonpayable",
      "type": "function"
    },
    {
      "inputs": [
        {
          "internalType": "uint256",
          "name": "_cityId",
          "type": "uint256"
        },
        {
          "internalType": "int256",
          "name": "_temperature",
          "type": "int256"
        }
      ],
      "name": "setTemperature",
      "outputs": [],
      "stateMutability": "nonpayable",
      "type": "function"
    },
    {
      "inputs": [
        {
          "internalType": "uint256",
          "name": "_cityId",
          "type": "uint256"
        }
      ],
      "name": "getTemperature",
      "outputs": [
        {
          "internalType": "int256",
          "name": "",
          "type": "int256"
        },
        {
          "internalType": "uint256",
          "name": "",
          "type": "uint256"
        }
      ],
      "stateMutability": "view",
      "type": "function",
      "constant": true
    },
    {
      "inputs": [
        {
          "internalType": "address",
          "name": "account",
          "type": "address"
        }
      ],
      "name": "isOwner",
      "outputs": [
        {
          "internalType": "bool",
          "name": "",
          "type": "bool"
        }
      ],
      "stateMutability": "view",
      "type": "function",
      "constant": true
    }
  ],
  "bytecode": "0x60806040523480156200001157600080fd5b50620000276000801b336200004560201b60201c565b60006002819055506200003f6200005b60201b60201c565b62000b3b565b620000578282620005fb60201b60201c565b5050565b60026000815480929190620000709062000797565b9190505550600042905060006040518060a001604052806040518060400160405280600781526020017f4d6f6e746f726f00000000000000000000000000000000000000000000000000815250815260200183815260200160025481526020017fffffffffffffffffffffffffffffffffffffffffffffffffffffffffffffffff81526020016040518060800160405280604e81526020016200273d604e91398152509050600260008154809291906200012a9062000797565b919050555060006040518060a001604052806040518060400160405280600881526020017f4176656c6c696e6f00000000000000000000000000000000000000000000000081525081526020018481526020016002548152602001601481526020016040518060800160405280604381526020016200267c60439139815250905060026000815480929190620001c09062000797565b919050555060006040518060a001604052806040518060400160405280600681526020017f4e61706f6c69000000000000000000000000000000000000000000000000000081525081526020018581526020016002548152602001601e81526020016040518060a00160405280607e8152602001620026bf607e9139815250905060026000815480929190620002569062000797565b919050555060006040518060a001604052806040518060400160405280600781526020017f53616c65726e6f0000000000000000000000000000000000000000000000000081525081526020018681526020016002548152602001600a81526020016040518060800160405280604681526020016200263660469139815250905060026000815480929190620002ec9062000797565b919050555060006040518060a001604052806040518060400160405280600881526020017f4669736369616e6f00000000000000000000000000000000000000000000000081525081526020018781526020016002548152602001601681526020016040518060a00160405280607881526020016200278b60789139815250905060026000815480929190620003829062000797565b919050555060018590806001815401808255809150506001900390600052602060002090600502016000909190919091506000820151816000019081620003ca919062000a54565b50602082015181600101556040820151816002015560608201518160030155608082015181600401908162000400919062000a54565b5050506001849080600181540180825580915050600190039060005260206000209060050201600090919091909150600082015181600001908162000446919062000a54565b5060208201518160010155604082015181600201556060820151816003015560808201518160040190816200047c919062000a54565b50505060018390806001815401808255809150506001900390600052602060002090600502016000909190919091506000820151816000019081620004c2919062000a54565b506020820151816001015560408201518160020155606082015181600301556080820151816004019081620004f8919062000a54565b505050600182908060018154018082558091505060019003906000526020600020906005020160009091909190915060008201518160000190816200053e919062000a54565b50602082015181600101556040820151816002015560608201518160030155608082015181600401908162000574919062000a54565b50505060018190806001815401808255809150506001900390600052602060002090600502016000909190919091506000820151816000019081620005ba919062000a54565b506020820151816001015560408201518160020155606082015181600301556080820151816004019081620005f0919062000a54565b505050505050505050565b6200060d8282620006ec60201b60201c565b620006e857600160008084815260200190815260200160002060000160008373ffffffffffffffffffffffffffffffffffffffff1673ffffffffffffffffffffffffffffffffffffffff16815260200190815260200160002060006101000a81548160ff0219169083151502179055506200068d6200075660201b60201c565b73ffffffffffffffffffffffffffffffffffffffff168173ffffffffffffffffffffffffffffffffffffffff16837f2f8788117e7eff1d82e926ec794901d17c78024a50270940304540a733656f0d60405160405180910390a45b5050565b600080600084815260200190815260200160002060000160008373ffffffffffffffffffffffffffffffffffffffff1673ffffffffffffffffffffffffffffffffffffffff16815260200190815260200160002060009054906101000a900460ff16905092915050565b600033905090565b7f4e487b7100000000000000000000000000000000000000000000000000000000600052601160045260246000fd5b6000819050919050565b6000620007a4826200078d565b91507fffffffffffffffffffffffffffffffffffffffffffffffffffffffffffffffff8203620007d957620007d86200075e565b5b600182019050919050565b600081519050919050565b7f4e487b7100000000000000000000000000000000000000000000000000000000600052604160045260246000fd5b7f4e487b7100000000000000000000000000000000000000000000000000000000600052602260045260246000fd5b600060028204905060018216806200086657607f821691505b6020821081036200087c576200087b6200081e565b5b50919050565b60008190508160005260206000209050919050565b60006020601f8301049050919050565b600082821b905092915050565b600060088302620008e67fffffffffffffffffffffffffffffffffffffffffffffffffffffffffffffffff82620008a7565b620008f28683620008a7565b95508019841693508086168417925050509392505050565b6000819050919050565b6000620009356200092f62000929846200078d565b6200090a565b6200078d565b9050919050565b6000819050919050565b620009518362000914565b6200096962000960826200093c565b848454620008b4565b825550505050565b600090565b6200098062000971565b6200098d81848462000946565b505050565b5b81811015620009b557620009a960008262000976565b60018101905062000993565b5050565b601f82111562000a0457620009ce8162000882565b620009d98462000897565b81016020851015620009e9578190505b62000a01620009f88562000897565b83018262000992565b50505b505050565b600082821c905092915050565b600062000a296000198460080262000a09565b1980831691505092915050565b600062000a44838362000a16565b9150826002028217905092915050565b62000a5f82620007e4565b67ffffffffffffffff81111562000a7b5762000a7a620007ef565b5b62000a8782546200084d565b62000a94828285620009b9565b600060209050601f83116001811462000acc576000841562000ab7578287015190505b62000ac3858262000a36565b86555062000b33565b601f19841662000adc8662000882565b60005b8281101562000b065784890151825560018201915060208501945060208101905062000adf565b8683101562000b26578489015162000b22601f89168262000a16565b8355505b6001600288020188555050505b505050505050565b611aeb8062000b4b6000396000f3fe608060405234801561001057600080fd5b50600436106100ea5760003560e01c806336568abe1161008c57806391d148541161006657806391d1485414610272578063a217fddf146102a2578063bfac9f1e146102c0578063d547741f146102dc576100ea565b806336568abe146102065780635e670c0f146102225780636a51b9181461023e576100ea565b806324e27d7e116100c857806324e27d7e1461016d5780632f2ff15d1461019e5780632f54bf6e146101ba5780633616a715146101ea576100ea565b806301ffc9a7146100ef57806305d68dc91461011f578063248a9ca31461013d575b600080fd5b61010960048036038101906101049190610f42565b6102f8565b6040516101169190610f8a565b60405180910390f35b610127610372565b6040516101349190610fbe565b60405180910390f35b6101576004803603810190610152919061100f565b610378565b604051610164919061104b565b60405180910390f35b61018760048036038101906101829190611092565b610397565b6040516101959291906110d8565b60405180910390f35b6101b860048036038101906101b3919061115f565b610463565b005b6101d460048036038101906101cf919061119f565b610484565b6040516101e19190610f8a565b60405180910390f35b61020460048036038101906101ff919061125d565b61049a565b005b610220600480360381019061021b919061115f565b6105e8565b005b61023c60048036038101906102379190611092565b61066b565b005b61025860048036038101906102539190611092565b610702565b604051610269959493929190611394565b60405180910390f35b61028c6004803603810190610287919061115f565b610858565b6040516102999190610f8a565b60405180910390f35b6102aa6108c2565b6040516102b7919061104b565b60405180910390f35b6102da60048036038101906102d591906113f5565b6108c9565b005b6102f660048036038101906102f1919061115f565b61098a565b005b60007f7965db0b000000000000000000000000000000000000000000000000000000007bffffffffffffffffffffffffffffffffffffffffffffffffffffffff1916827bffffffffffffffffffffffffffffffffffffffffffffffffffffffff1916148061036b575061036a826109ab565b5b9050919050565b60025481565b6000806000838152602001908152602001600020600101549050919050565b60008060006001805490509050600080828611156103b457600080fd5b60005b6001805490508110156104545786600182815481106103d9576103d8611435565b5b90600052602060002090600502016002015403610441576001818154811061040457610403611435565b5b90600052602060002090600502016003015492506001818154811061042c5761042b611435565b5b90600052602060002090600502016001015491505b808061044c90611493565b9150506103b7565b50818194509450505050915091565b61046c82610378565b61047581610a15565b61047f8383610a29565b505050565b60006104936000801b83610858565b9050919050565b60006040518060a0016040528088888080601f016020809104026020016040519081016040528093929190818152602001838380828437600081840152601f19601f820116905080830192505050505050508152602001868152602001600254815260200185815260200184848080601f016020809104026020016040519081016040528093929190818152602001838380828437600081840152601f19601f820116905080830192505050505050508152509050600181908060018154018082558091505060019003906000526020600020906005020160009091909190915060008201518160000190816105909190611716565b5060208201518160010155604082015181600201556060820151816003015560808201518160040190816105c49190611716565b505050600260008154809291906105da90611493565b919050555050505050505050565b6105f0610b09565b73ffffffffffffffffffffffffffffffffffffffff168173ffffffffffffffffffffffffffffffffffffffff161461065d576040517f08c379a00000000000000000000000000000000000000000000000000000000081526004016106549061185a565b60405180910390fd5b6106678282610b11565b5050565b600060018054905090508082111561068257600080fd5b60005b6001805490508110156106fd5782600182815481106106a7576106a6611435565b5b906000526020600020906005020160020154036106ea576000600182815481106106d4576106d3611435565b5b9060005260206000209060050201600201819055505b80806106f590611493565b915050610685565b505050565b6001818154811061071257600080fd5b906000526020600020906005020160009150905080600001805461073590611539565b80601f016020809104026020016040519081016040528092919081815260200182805461076190611539565b80156107ae5780601f10610783576101008083540402835291602001916107ae565b820191906000526020600020905b81548152906001019060200180831161079157829003601f168201915b5050505050908060010154908060020154908060030154908060040180546107d590611539565b80601f016020809104026020016040519081016040528092919081815260200182805461080190611539565b801561084e5780601f106108235761010080835404028352916020019161084e565b820191906000526020600020905b81548152906001019060200180831161083157829003601f168201915b5050505050905085565b600080600084815260200190815260200160002060000160008373ffffffffffffffffffffffffffffffffffffffff1673ffffffffffffffffffffffffffffffffffffffff16815260200190815260200160002060009054906101000a900460ff16905092915050565b6000801b81565b60006001805490509050808311156108e057600080fd5b60005b60018054905081101561098457836001828154811061090557610904611435565b5b9060005260206000209060050201600201540361097157426001828154811061093157610930611435565b5b906000526020600020906005020160010181905550826001828154811061095b5761095a611435565b5b9060005260206000209060050201600301819055505b808061097c90611493565b9150506108e3565b50505050565b61099382610378565b61099c81610a15565b6109a68383610b11565b505050565b60007f01ffc9a7000000000000000000000000000000000000000000000000000000007bffffffffffffffffffffffffffffffffffffffffffffffffffffffff1916827bffffffffffffffffffffffffffffffffffffffffffffffffffffffff1916149050919050565b610a2681610a21610b09565b610bf2565b50565b610a338282610858565b610b0557600160008084815260200190815260200160002060000160008373ffffffffffffffffffffffffffffffffffffffff1673ffffffffffffffffffffffffffffffffffffffff16815260200190815260200160002060006101000a81548160ff021916908315150217905550610aaa610b09565b73ffffffffffffffffffffffffffffffffffffffff168173ffffffffffffffffffffffffffffffffffffffff16837f2f8788117e7eff1d82e926ec794901d17c78024a50270940304540a733656f0d60405160405180910390a45b5050565b600033905090565b610b1b8282610858565b15610bee57600080600084815260200190815260200160002060000160008373ffffffffffffffffffffffffffffffffffffffff1673ffffffffffffffffffffffffffffffffffffffff16815260200190815260200160002060006101000a81548160ff021916908315150217905550610b93610b09565b73ffffffffffffffffffffffffffffffffffffffff168173ffffffffffffffffffffffffffffffffffffffff16837ff6391f5c32d9c69d2a47ea670b442974b53935d1edc7fd64eb21e047a839171b60405160405180910390a45b5050565b610bfc8282610858565b610c7357610c0981610c77565b610c178360001c6020610ca4565b604051602001610c2892919061194e565b6040516020818303038152906040526040517f08c379a0000000000000000000000000000000000000000000000000000000008152600401610c6a9190611988565b60405180910390fd5b5050565b6060610c9d8273ffffffffffffffffffffffffffffffffffffffff16601460ff16610ca4565b9050919050565b606060006002836002610cb791906119aa565b610cc191906119ec565b67ffffffffffffffff811115610cda57610cd96114db565b5b6040519080825280601f01601f191660200182016040528015610d0c5781602001600182028036833780820191505090505b5090507f300000000000000000000000000000000000000000000000000000000000000081600081518110610d4457610d43611435565b5b60200101907effffffffffffffffffffffffffffffffffffffffffffffffffffffffffffff1916908160001a9053507f780000000000000000000000000000000000000000000000000000000000000081600181518110610da857610da7611435565b5b60200101907effffffffffffffffffffffffffffffffffffffffffffffffffffffffffffff1916908160001a90535060006001846002610de891906119aa565b610df291906119ec565b90505b6001811115610e92577f3031323334353637383961626364656600000000000000000000000000000000600f861660108110610e3457610e33611435565b5b1a60f81b828281518110610e4b57610e4a611435565b5b60200101907effffffffffffffffffffffffffffffffffffffffffffffffffffffffffffff1916908160001a905350600485901c945080610e8b90611a20565b9050610df5565b5060008414610ed6576040517f08c379a0000000000000000000000000000000000000000000000000000000008152600401610ecd90611a95565b60405180910390fd5b8091505092915050565b600080fd5b600080fd5b60007fffffffff0000000000000000000000000000000000000000000000000000000082169050919050565b610f1f81610eea565b8114610f2a57600080fd5b50565b600081359050610f3c81610f16565b92915050565b600060208284031215610f5857610f57610ee0565b5b6000610f6684828501610f2d565b91505092915050565b60008115159050919050565b610f8481610f6f565b82525050565b6000602082019050610f9f6000830184610f7b565b92915050565b6000819050919050565b610fb881610fa5565b82525050565b6000602082019050610fd36000830184610faf565b92915050565b6000819050919050565b610fec81610fd9565b8114610ff757600080fd5b50565b60008135905061100981610fe3565b92915050565b60006020828403121561102557611024610ee0565b5b600061103384828501610ffa565b91505092915050565b61104581610fd9565b82525050565b6000602082019050611060600083018461103c565b92915050565b61106f81610fa5565b811461107a57600080fd5b50565b60008135905061108c81611066565b92915050565b6000602082840312156110a8576110a7610ee0565b5b60006110b68482850161107d565b91505092915050565b6000819050919050565b6110d2816110bf565b82525050565b60006040820190506110ed60008301856110c9565b6110fa6020830184610faf565b9392505050565b600073ffffffffffffffffffffffffffffffffffffffff82169050919050565b600061112c82611101565b9050919050565b61113c81611121565b811461114757600080fd5b50565b60008135905061115981611133565b92915050565b6000806040838503121561117657611175610ee0565b5b600061118485828601610ffa565b92505060206111958582860161114a565b9150509250929050565b6000602082840312156111b5576111b4610ee0565b5b60006111c38482850161114a565b91505092915050565b600080fd5b600080fd5b600080fd5b60008083601f8401126111f1576111f06111cc565b5b8235905067ffffffffffffffff81111561120e5761120d6111d1565b5b60208301915083600182028301111561122a576112296111d6565b5b9250929050565b61123a816110bf565b811461124557600080fd5b50565b60008135905061125781611231565b92915050565b6000806000806000806080878903121561127a57611279610ee0565b5b600087013567ffffffffffffffff81111561129857611297610ee5565b5b6112a489828a016111db565b965096505060206112b789828a0161107d565b94505060406112c889828a01611248565b935050606087013567ffffffffffffffff8111156112e9576112e8610ee5565b5b6112f589828a016111db565b92509250509295509295509295565b600081519050919050565b600082825260208201905092915050565b60005b8381101561133e578082015181840152602081019050611323565b60008484015250505050565b6000601f19601f8301169050919050565b600061136682611304565b611370818561130f565b9350611380818560208601611320565b6113898161134a565b840191505092915050565b600060a08201905081810360008301526113ae818861135b565b90506113bd6020830187610faf565b6113ca6040830186610faf565b6113d760608301856110c9565b81810360808301526113e9818461135b565b90509695505050505050565b6000806040838503121561140c5761140b610ee0565b5b600061141a8582860161107d565b925050602061142b85828601611248565b9150509250929050565b7f4e487b7100000000000000000000000000000000000000000000000000000000600052603260045260246000fd5b7f4e487b7100000000000000000000000000000000000000000000000000000000600052601160045260246000fd5b600061149e82610fa5565b91507fffffffffffffffffffffffffffffffffffffffffffffffffffffffffffffffff82036114d0576114cf611464565b5b600182019050919050565b7f4e487b7100000000000000000000000000000000000000000000000000000000600052604160045260246000fd5b7f4e487b7100000000000000000000000000000000000000000000000000000000600052602260045260246000fd5b6000600282049050600182168061155157607f821691505b6020821081036115645761156361150a565b5b50919050565b60008190508160005260206000209050919050565b60006020601f8301049050919050565b600082821b905092915050565b6000600883026115cc7fffffffffffffffffffffffffffffffffffffffffffffffffffffffffffffffff8261158f565b6115d6868361158f565b95508019841693508086168417925050509392505050565b6000819050919050565b600061161361160e61160984610fa5565b6115ee565b610fa5565b9050919050565b6000819050919050565b61162d836115f8565b6116416116398261161a565b84845461159c565b825550505050565b600090565b611656611649565b611661818484611624565b505050565b5b818110156116855761167a60008261164e565b600181019050611667565b5050565b601f8211156116ca5761169b8161156a565b6116a48461157f565b810160208510156116b3578190505b6116c76116bf8561157f565b830182611666565b50505b505050565b600082821c905092915050565b60006116ed600019846008026116cf565b1980831691505092915050565b600061170683836116dc565b9150826002028217905092915050565b61171f82611304565b67ffffffffffffffff811115611738576117376114db565b5b6117428254611539565b61174d828285611689565b600060209050601f831160018114611780576000841561176e578287015190505b61177885826116fa565b8655506117e0565b601f19841661178e8661156a565b60005b828110156117b657848901518255600182019150602085019450602081019050611791565b868310156117d357848901516117cf601f8916826116dc565b8355505b6001600288020188555050505b505050505050565b7f416363657373436f6e74726f6c3a2063616e206f6e6c792072656e6f756e636560008201527f20726f6c657320666f722073656c660000000000000000000000000000000000602082015250565b6000611844602f8361130f565b915061184f826117e8565b604082019050919050565b6000602082019050818103600083015261187381611837565b9050919050565b600081905092915050565b7f416363657373436f6e74726f6c3a206163636f756e7420000000000000000000600082015250565b60006118bb60178361187a565b91506118c682611885565b601782019050919050565b60006118dc82611304565b6118e6818561187a565b93506118f6818560208601611320565b80840191505092915050565b7f206973206d697373696e6720726f6c6520000000000000000000000000000000600082015250565b600061193860118361187a565b915061194382611902565b601182019050919050565b6000611959826118ae565b915061196582856118d1565b91506119708261192b565b915061197c82846118d1565b91508190509392505050565b600060208201905081810360008301526119a2818461135b565b905092915050565b60006119b582610fa5565b91506119c083610fa5565b92508282026119ce81610fa5565b915082820484148315176119e5576119e4611464565b5b5092915050565b60006119f782610fa5565b9150611a0283610fa5565b9250828201905080821115611a1a57611a19611464565b5b92915050565b6000611a2b82610fa5565b915060008203611a3e57611a3d611464565b5b600182039050919050565b7f537472696e67733a20686578206c656e67746820696e73756666696369656e74600082015250565b6000611a7f60208361130f565b9150611a8a82611a49565b602082019050919050565b60006020820190508181036000830152611aae81611a72565b905091905056fea26469706673582212200305b7718eee472f5f19ce1aa21006f330a2f89d933f2c391cb9c6ac9679f99764736f6c6343000811003368747470733a2f2f766961676769616e7a612e636f6d2f77702d636f6e74656e742f75706c6f6164732f323031392f30342f73616c65726e6f2d70616e6f72616d612e6a706768747470733a2f2f7777772e6f72746963616c61622e69742f73697465732f6f72746963612f494d472f6172746f6e39363532372e6a70673f3136343330343636343568747470733a2f2f746f757269736d6d656469612e6974616c69612e69742f69732f696d6167652f6d697475722f3136303058313030305f6974696e65726172696f5f64696563696d696c615f70617373695f6e61706f6c695f6865726f3f716c743d38322674733d31363635393931393335393533266470723d6f666668747470733a2f2f7777772e74757269736d6f6e61726e692e69742f77702d636f6e74656e742f75706c6f6164732f323032322f30352f63617374656c6c6f2d64692d6d6f6e746f726f2e6a706768747470733a2f2f636974796e6577732d73616c65726e6f746f6461792e737467792e6f76682f7e6d656469612f6f726967696e616c2d68692f33343538393733353833313131372f315f63616d7075732d64692d6669736369616e6f2d6269626c696f746563612d736369656e7469666963612e6a7067",
  "immutableReferences": {},
  "source": "// SPDX-License-Identifier: MIT\r\npragma solidity ^0.8.0;\r\n\r\nimport \"@openzeppelin/contracts/access/AccessControl.sol\";\r\n\r\n//Temperature.deployed().then(function(i) { contract=i;})\r\n\r\ncontract Temperature is AccessControl  {\r\n    \r\n    struct City {\r\n        string cityName;\r\n        uint256 tempTime;\r\n        uint256 cityId;\r\n        int256 cityTemp;\r\n        string cityImg;\r\n    }\r\n\r\n    City[] public cities;\r\n    uint public numberOfCities;\r\n\r\n    constructor() {\r\n        _setupRole(DEFAULT_ADMIN_ROLE, msg.sender);\r\n\r\n        numberOfCities = 0;\r\n        populateCity();\r\n    }\r\n\r\n    function addCity(string calldata _name, uint256 _tempTime,  int256 _cityTemp, string calldata _cityImg) external {\r\n\r\n        City memory city = City(_name, _tempTime, numberOfCities, _cityTemp, _cityImg);\r\n\r\n        cities.push(city);\r\n\r\n        numberOfCities++;\r\n    }\r\n\r\n    function deleteCity(uint256 _cityId) external {\r\n\r\n        uint256 IndexOfCity = cities.length;\r\n\r\n        require(_cityId <= IndexOfCity);\r\n                \r\n        for (uint256 i = 0; i < cities.length; i++) {\r\n            if (cities[i].cityId == _cityId) {\r\n                cities[i].cityId = 0;\r\n            }\r\n        }\r\n\r\n    }\r\n\r\n    //hard coded cities. Remember the fill the Json file as you enter this data\r\n    function populateCity() private {\r\n        numberOfCities++;\r\n        uint chainStartTime = block.timestamp;\r\n\r\n        City memory citta1 = City(\"Montoro\", chainStartTime, numberOfCities, -1, \"https://www.turismonarni.it/wp-content/uploads/2022/05/castello-di-montoro.jpg\");\r\n        numberOfCities++;\r\n        City memory citta2 = City(\"Avellino\", chainStartTime, numberOfCities, 20, \"https://www.orticalab.it/sites/ortica/IMG/arton96527.jpg?1643046645\");\r\n        numberOfCities++;\r\n        City memory citta3 = City(\"Napoli\", chainStartTime, numberOfCities, 30, \"https://tourismmedia.italia.it/is/image/mitur/1600X1000_itinerario_diecimila_passi_napoli_hero?qlt=82&ts=1665991935953&dpr=off\");\r\n        numberOfCities++;\r\n        City memory citta4 = City(\"Salerno\", chainStartTime, numberOfCities, 10, \"https://viaggianza.com/wp-content/uploads/2019/04/salerno-panorama.jpg\");\r\n        numberOfCities++;\r\n        City memory citta5 = City(\"Fisciano\", chainStartTime, numberOfCities, 22 , \"https://citynews-salernotoday.stgy.ovh/~media/original-hi/34589735831117/1_campus-di-fisciano-biblioteca-scientifica.jpg\");\r\n        numberOfCities++;\r\n\r\n        cities.push(citta1);\r\n        cities.push(citta2);\r\n        cities.push(citta3);\r\n        cities.push(citta4);\r\n        cities.push(citta5);\r\n    }\r\n\r\n    function setTemperature(uint256 _cityId, int256 _temperature) public {\r\n        uint256 IndexOfCity = cities.length;\r\n\r\n        require(_cityId <= IndexOfCity);\r\n\r\n        for (uint256 i = 0; i < cities.length; i++) {\r\n            if (cities[i].cityId == _cityId) {\r\n                cities[i].tempTime = block.timestamp;\r\n                cities[i].cityTemp = _temperature;\r\n            }\r\n        }\r\n    }\r\n\r\n    function getTemperature(uint256 _cityId) public view returns (int256, uint) {\r\n        uint256 IndexOfCity = cities.length;\r\n        int256 temperature;\r\n        uint lastTime;\r\n\r\n        require(_cityId <= IndexOfCity);\r\n        \r\n        for (uint256 i = 0; i < cities.length; i++) {\r\n            if (cities[i].cityId == _cityId) {\r\n                temperature = cities[i].cityTemp;\r\n                lastTime = cities[i].tempTime;\r\n            }\r\n        }\r\n\r\n        return (temperature, lastTime);\r\n    }\r\n\r\n    function isOwner(address account) public virtual view returns (bool) {\r\n      return hasRole(DEFAULT_ADMIN_ROLE, account);\r\n    }\r\n}\r\n",
  "sourcePath": "C:\\Users\\bluke\\Desktop\\tempDHTBlock\\contracts\\Temperature.sol",
  "compiler": {
    "name": "solc",
    "version": "0.8.17+commit.8df45f5f.Emscripten.clang"
  },
  "schemaVersion": "3.4.10",
  "updatedAt": "2023-02-13T18:14:55.219Z",
  "networkType": "ethereum",
  "devdoc": {
    "kind": "dev",
    "methods": {
      "getRoleAdmin(bytes32)": {
        "details": "Returns the admin role that controls `role`. See {grantRole} and {revokeRole}. To change a role's admin, use {_setRoleAdmin}."
      },
      "grantRole(bytes32,address)": {
        "details": "Grants `role` to `account`. If `account` had not been already granted `role`, emits a {RoleGranted} event. Requirements: - the caller must have ``role``'s admin role. May emit a {RoleGranted} event."
      },
      "hasRole(bytes32,address)": {
        "details": "Returns `true` if `account` has been granted `role`."
      },
      "renounceRole(bytes32,address)": {
        "details": "Revokes `role` from the calling account. Roles are often managed via {grantRole} and {revokeRole}: this function's purpose is to provide a mechanism for accounts to lose their privileges if they are compromised (such as when a trusted device is misplaced). If the calling account had been revoked `role`, emits a {RoleRevoked} event. Requirements: - the caller must be `account`. May emit a {RoleRevoked} event."
      },
      "revokeRole(bytes32,address)": {
        "details": "Revokes `role` from `account`. If `account` had been granted `role`, emits a {RoleRevoked} event. Requirements: - the caller must have ``role``'s admin role. May emit a {RoleRevoked} event."
      },
      "supportsInterface(bytes4)": {
        "details": "See {IERC165-supportsInterface}."
      }
    },
    "version": 1
  },
  "userdoc": {
    "kind": "user",
    "methods": {},
    "version": 1
  }
}